:030000000205FEF8
:0100030032CA
:01000B0032C2
:0100130032BA
:01001B0032B2
:0100230032AA
:03005B000204BCE0
:10005E00C00078B10000D8FCD00022C000C00179E9
:10006E002D78A6D8FED9FADAF6D001D00022D29693
:10007E0012005EC29622A2E79286A2E69287A2E5BF
:10008E009290A2E4929112007C12005EA2E39286FC
:10009E00A2E29287A2E19290A2E0929112007C22BB
:1000AE00D2A0020084C2A0020084C296C29774330A
:1000BE001200B374331200B374321200B3742812E8
:1000CE0000B3740C1200B374011200B3C0027A02B2
:1000DE00120069D00222E49360061200AEA380F6ED
:1000EE0022E493601212005E1200AEC0027AFA127F
:1000FE000069D002A380EA22444044800200B3C0CB
:10010E00E0E8C4540F44301200AEE8540F443012ED
:05011E0000AED0E0225C
:10012300C0E0C0D0C000C001C002E4F53BF53CF51F
:100133003DF53EF53F7A20E536A2E779047833E6CC
:1001430033F608D9FA7905783BE636D4F608D9F9B7
:10015300DAE5D002D001D000D0D0D0E022C0E0C098
:10016300D0C000C001C002E4F53BF53CF53DF53ECF
:10017300F53F7A20E536A2E779047833E633F608CB
:10018300D9FA7905783BC0D0E6243320E70224D09E
:1001930020E30224FDD0D033F608D9EADAD6D00220
:1001A300D001D000D0D0D0E022C0E0C0D0C000C089
:1001B30001C0027A207905C3783FE613C0D030E747
:1001C3000224D030E30224FDF618D0D0D9EC790410
:1001D3007836E613F618D9FADADBD002D001D0006C
:1001E300D0D0D0E022C0E0C0D0E5332537F533E5E9
:1001F300343538F534E5353539F535E536353AF501
:1002030036D0D0D0E022C0E0C0D0C3E5339537F577
:1002130033E5349538F534E5359539F535E53695D7
:100223003AF536D0D0D0E022C0E0C0D0C3E5339554
:1002330037E5349538E5359539E536953A9200D06A
:10024300D0D0E022C0E0C0D0C3E5379533E5389580
:1002530034E5399535E53A95369200D0D0D0E02291
:10026300C0E0C0D0C200C3E53795337014E53895BC
:1002730034700EE53995357008E53A95367002D23B
:1002830000D0D0D0E02212026320000302024722F2
:1002930012026320000302022B22C0E0C0F0C0D090
:1002A300C000C001C002C003E5338537F0A4F8A93C
:1002B300F0E5348537F0A429F9E435F0FAE5338520
:1002C30038F0A429F9E5F03AFAE433FBE53585374C
:1002D300F0A42AFAE5F03BFBE5348538F0A42AFACA
:1002E300E5F03BFBE5338539F0A42AFAE5F03BFB67
:1002F300E5368537F0A42BFBE5358538F0A42BFBD9
:10030300E5348539F0A42BFBE533853AF0A42BFBC8
:100313008B368A3589348833D003D002D001D0009C
:10032300D0D0D0F0D0E022C0E0C0D0C000C001C027
:1003330002C003C0047C20E4F8F9FAFBC3E53333BD
:10034300F533E53433F534E53533F535E53633F553
:1003530036E833F8E933F9EA33FAEB33FBC3E895CC
:1003630037E99538EA9539EB953A4013E89537F82C
:10037300E99538F9EA9539FAEB953AFB433301DC11
:10038300BBD004D003D002D001D000D0D0D0E02223
:1003930043617061636974616E636520286E4629E9
:1003A3003A007533C075342B753500753600858A70
:1003B30037858C38753900753A0012029D753710F0
:1003C300753827753900753A0012032A8533378546
:1003D300343885353985363A7533007534A8753523
:1003E300D475365512032A1201231203F122C0E0F9
:1003F300E53EC0E0740714120106D0E0C0E07420AB
:100403001200AED0E0B40027C000A83D12010DD009
:1004130000C0E0742E1200AED0E0C000A83C120170
:100423000DD000C000A83B12010DD000D0E022C0C7
:1004330000A83E12010DD000C000A83D12010DD04E
:1004430000C0E0742E1200AED0E0C000A83C120140
:100453000DD000C000A83B12010DD000D0E0227ADD
:10046300C679F578A7D8FED9FADAF622E4780079C6
:10047300007A007B10E58A33F58AE58C33F58CE846
:1004830038D4F8E939D4F9EA3AD4FADBE822EA5461
:100493000F44301200AEE9C4540F44301200AEE9E9
:1004A300540F44301200AEE8C4540F44301200AE6F
:1004B300E8540F44301200AE2275A700C2CFC0E04B
:1004C300C0D0E53045314532602974FF1530B53071
:1004D300071531B531021532D29212051175A730C5
:1004E300C0E0C454F0F584D0E0C4540FF58575A77B
:1004F300008006C2CAD283C292D0D0D0E032109913
:100503000280FBF5992210980280FBE59922F5A35E
:1005130030FFFDC2FFE5A322C2837406120511D288
:100523008322C28374051205117455120511D283F7
:1005330020E0EF227597DE7597AD75FF8075EF06A6
:1005430075A71075C12075A70075A90075A900E5E9
:10055300A930E7FB75A90375A903E5A930E7FB7586
:10056300A70053F4FE43B00175A41D43D4C843D57B
:100573000375E10375E21075E340759810758DE618
:10058300858D8B53890F438920D28ED29975A730DD
:1005930075888875980075A2227591807592027589
:1005A300840075850875A70075A20075A14075F8CC
:1005B30001D283C29275C800438E1075CA3F75CBB2
:1005C300F375CFFF75CEFFD2AD75A90075A900C233
:1005D3008CE58954F04405F5891200B8C0E0740134
:1005E30014120108D0E0C083C082C0E090039312CC
:1005F30000E4D0E0D082D083D2AF2275817F120590
:100603003775A90375A90320984F20B7F430B7FDB8
:10061300C2CAD283C292C283740312051174001238
:1006230005117400120511740012051174001205EE
:100633001175323F7531FF7530FFD292D2CA75A959
:100643000075A900C28C758A00758C00D28C1204C7
:1006530062C28C1203A5020647120509B423A2C283
:10066300CAD283C292120509B43024C283749F1282
:100673000511745512051112050174551205111255
:1006830005017455120511120501D283020604B443
:10069300311712051BC28374C7120511D2831205C9
:1006A300257401120501020604B4323512051BC27A
:1006B300837402120511120509120511120509129C
:1006C3000511120509120511120509F8120509127F
:1006D3000511D8F8D283120525740112050102060B
:1006E30004B4332CC28374031205111205091205D5
:1006F3001112050912051112050912051112050936
:10070300F87455120511120501D8F6D283020604B6
:10071300B43436C2CAD283C28374031205111205DC
:100723000912051112050912051112050912051105
:10073300120509F532120509F531120509F5307470
:1007430000120511D2CA020604B4355C120509FD74
:10075300120509FC120509FB0B0C0D75A72075CEBC
:1007630008C2837403120511E4120511E412051182
:10077300E4120511F5A3800B30FFFDC2FFE5A3F5DD
:10078300A3F5CADBF3DCF1DDEF30FFFDC2FFE5A328
:10079300D28375CE01E5CB12050175CE00E5CB12F0
:1007A300050175A700020604B4363512051BC28382
:1007B3007402120511120509120511120509120519
:1007C30011120509120511120509F97800E912053C
:1007D30011D8FAD283120525740112050102060409
:0307E30002060407
:00000001FF
